{
  "_format": "hh-sol-artifact-1",
  "contractName": "VerifySignature",
  "sourceName": "contracts/Verify.sol",
  "abi": [
    {
      "anonymous": false,
      "inputs": [
        {
          "indexed": true,
          "internalType": "address",
          "name": "Signer",
          "type": "address"
        }
      ],
      "name": "SignerFecth",
      "type": "event"
    },
    {
      "inputs": [
        {
          "internalType": "bytes32",
          "name": "_messageHash",
          "type": "bytes32"
        }
      ],
      "name": "getEthSignedMessageHash",
      "outputs": [
        {
          "internalType": "bytes32",
          "name": "",
          "type": "bytes32"
        }
      ],
      "stateMutability": "pure",
      "type": "function"
    },
    {
      "inputs": [
        {
          "internalType": "string",
          "name": "_message",
          "type": "string"
        }
      ],
      "name": "getMessageHash",
      "outputs": [
        {
          "internalType": "bytes32",
          "name": "",
          "type": "bytes32"
        }
      ],
      "stateMutability": "pure",
      "type": "function"
    },
    {
      "inputs": [
        {
          "internalType": "bytes32",
          "name": "_ethSignedMessageHash",
          "type": "bytes32"
        },
        {
          "internalType": "bytes",
          "name": "_signature",
          "type": "bytes"
        }
      ],
      "name": "recoverSigner",
      "outputs": [
        {
          "internalType": "address",
          "name": "signer",
          "type": "address"
        }
      ],
      "stateMutability": "nonpayable",
      "type": "function"
    },
    {
      "inputs": [
        {
          "internalType": "bytes",
          "name": "sig",
          "type": "bytes"
        }
      ],
      "name": "splitSignature",
      "outputs": [
        {
          "internalType": "bytes32",
          "name": "r",
          "type": "bytes32"
        },
        {
          "internalType": "bytes32",
          "name": "s",
          "type": "bytes32"
        },
        {
          "internalType": "uint8",
          "name": "v",
          "type": "uint8"
        }
      ],
      "stateMutability": "pure",
      "type": "function"
    },
    {
      "inputs": [
        {
          "internalType": "address",
          "name": "_signer",
          "type": "address"
        },
        {
          "internalType": "string",
          "name": "_message",
          "type": "string"
        },
        {
          "internalType": "bytes",
          "name": "signature",
          "type": "bytes"
        }
      ],
      "name": "verify",
      "outputs": [
        {
          "internalType": "bool",
          "name": "",
          "type": "bool"
        }
      ],
      "stateMutability": "nonpayable",
      "type": "function"
    }
  ],
  "bytecode": "0x608060405234801561001057600080fd5b50610a4b806100206000396000f3fe608060405234801561001057600080fd5b50600436106100575760003560e01c80632dd34f0f1461005c57806397aba7f91461008c578063a7bb5803146100bc578063b446f3b2146100ee578063fa5408011461011e575b600080fd5b6100766004803603810190610071919061057f565b61014e565b6040516100839190610625565b60405180910390f35b6100a660048036038101906100a19190610676565b6101ac565b6040516100b391906106e1565b60405180910390f35b6100d660048036038101906100d191906106fc565b61025e565b6040516100e593929190610770565b60405180910390f35b610108600480360381019061010391906107a7565b6102c6565b60405161011591906107f0565b60405180910390f35b6101386004803603810190610133919061080b565b6102f6565b60405161014591906107f0565b60405180910390f35b60008061015a846102c6565b90506000610167826102f6565b90508573ffffffffffffffffffffffffffffffffffffffff1661018a82866101ac565b73ffffffffffffffffffffffffffffffffffffffff1614925050509392505050565b6000806000806101bb8561025e565b925092509250600186828585604051600081526020016040526040516101e49493929190610838565b6020604051602081039080840390855afa158015610206573d6000803e3d6000fd5b5050506020604051035193508373ffffffffffffffffffffffffffffffffffffffff167f4350f5e5e268181a7df9d95d4b1776ead78f460f7d1b4879261cada450aa51ce60405160405180910390a250505092915050565b600080600060418451146102a7576040517f08c379a000000000000000000000000000000000000000000000000000000000815260040161029e906108da565b60405180910390fd5b6020840151925060408401519150606084015160001a90509193909250565b6000816040516020016102d9919061096b565b604051602081830303815290604052805190602001209050919050565b60008160405160200161030991906109ef565b604051602081830303815290604052805190602001209050919050565b6000604051905090565b600080fd5b600080fd5b600073ffffffffffffffffffffffffffffffffffffffff82169050919050565b60006103658261033a565b9050919050565b6103758161035a565b811461038057600080fd5b50565b6000813590506103928161036c565b92915050565b600080fd5b600080fd5b6000601f19601f8301169050919050565b7f4e487b7100000000000000000000000000000000000000000000000000000000600052604160045260246000fd5b6103eb826103a2565b810181811067ffffffffffffffff8211171561040a576104096103b3565b5b80604052505050565b600061041d610326565b905061042982826103e2565b919050565b600067ffffffffffffffff821115610449576104486103b3565b5b610452826103a2565b9050602081019050919050565b82818337600083830152505050565b600061048161047c8461042e565b610413565b90508281526020810184848401111561049d5761049c61039d565b5b6104a884828561045f565b509392505050565b600082601f8301126104c5576104c4610398565b5b81356104d584826020860161046e565b91505092915050565b600067ffffffffffffffff8211156104f9576104f86103b3565b5b610502826103a2565b9050602081019050919050565b600061052261051d846104de565b610413565b90508281526020810184848401111561053e5761053d61039d565b5b61054984828561045f565b509392505050565b600082601f83011261056657610565610398565b5b813561057684826020860161050f565b91505092915050565b60008060006060848603121561059857610597610330565b5b60006105a686828701610383565b935050602084013567ffffffffffffffff8111156105c7576105c6610335565b5b6105d3868287016104b0565b925050604084013567ffffffffffffffff8111156105f4576105f3610335565b5b61060086828701610551565b9150509250925092565b60008115159050919050565b61061f8161060a565b82525050565b600060208201905061063a6000830184610616565b92915050565b6000819050919050565b61065381610640565b811461065e57600080fd5b50565b6000813590506106708161064a565b92915050565b6000806040838503121561068d5761068c610330565b5b600061069b85828601610661565b925050602083013567ffffffffffffffff8111156106bc576106bb610335565b5b6106c885828601610551565b9150509250929050565b6106db8161035a565b82525050565b60006020820190506106f660008301846106d2565b92915050565b60006020828403121561071257610711610330565b5b600082013567ffffffffffffffff8111156107305761072f610335565b5b61073c84828501610551565b91505092915050565b61074e81610640565b82525050565b600060ff82169050919050565b61076a81610754565b82525050565b60006060820190506107856000830186610745565b6107926020830185610745565b61079f6040830184610761565b949350505050565b6000602082840312156107bd576107bc610330565b5b600082013567ffffffffffffffff8111156107db576107da610335565b5b6107e7848285016104b0565b91505092915050565b60006020820190506108056000830184610745565b92915050565b60006020828403121561082157610820610330565b5b600061082f84828501610661565b91505092915050565b600060808201905061084d6000830187610745565b61085a6020830186610761565b6108676040830185610745565b6108746060830184610745565b95945050505050565b600082825260208201905092915050565b7f696e76616c6964207369676e6174757265206c656e6774680000000000000000600082015250565b60006108c460188361087d565b91506108cf8261088e565b602082019050919050565b600060208201905081810360008301526108f3816108b7565b9050919050565b600081519050919050565b600081905092915050565b60005b8381101561092e578082015181840152602081019050610913565b60008484015250505050565b6000610945826108fa565b61094f8185610905565b935061095f818560208601610910565b80840191505092915050565b6000610977828461093a565b915081905092915050565b7f19457468657265756d205369676e6564204d6573736167653a0a333200000000600082015250565b60006109b8601c83610905565b91506109c382610982565b601c82019050919050565b6000819050919050565b6109e96109e482610640565b6109ce565b82525050565b60006109fa826109ab565b9150610a0682846109d8565b6020820191508190509291505056fea2646970667358221220a7d059398b01a68fdb1f8e20a4f545837b9a01b2114c89214e0067858e3568f364736f6c63430008110033",
  "linkReferences": {},
  "deployedLinkReferences": {}
}